{
  "_format": "hh-sol-artifact-1",
  "contractName": "FrenPetToken",
  "sourceName": "contracts/FrenPetToken.sol",
  "abi": [
    {
      "inputs": [],
      "stateMutability": "nonpayable",
      "type": "constructor"
    },
    {
      "anonymous": false,
      "inputs": [
        {
          "indexed": true,
          "internalType": "address",
          "name": "owner",
          "type": "address"
        },
        {
          "indexed": true,
          "internalType": "address",
          "name": "spender",
          "type": "address"
        },
        {
          "indexed": false,
          "internalType": "uint256",
          "name": "value",
          "type": "uint256"
        }
      ],
      "name": "Approval",
      "type": "event"
    },
    {
      "anonymous": false,
      "inputs": [
        {
          "indexed": true,
          "internalType": "address",
          "name": "account",
          "type": "address"
        },
        {
          "indexed": false,
          "internalType": "bool",
          "name": "isExcluded",
          "type": "bool"
        }
      ],
      "name": "ExcludeFromFees",
      "type": "event"
    },
    {
      "anonymous": false,
      "inputs": [
        {
          "indexed": true,
          "internalType": "address",
          "name": "previousOwner",
          "type": "address"
        },
        {
          "indexed": true,
          "internalType": "address",
          "name": "newOwner",
          "type": "address"
        }
      ],
      "name": "OwnershipTransferred",
      "type": "event"
    },
    {
      "anonymous": false,
      "inputs": [
        {
          "indexed": true,
          "internalType": "address",
          "name": "pair",
          "type": "address"
        },
        {
          "indexed": true,
          "internalType": "bool",
          "name": "value",
          "type": "bool"
        }
      ],
      "name": "SetAutomatedMarketMakerPair",
      "type": "event"
    },
    {
      "anonymous": false,
      "inputs": [
        {
          "indexed": false,
          "internalType": "uint256",
          "name": "tokensSwapped",
          "type": "uint256"
        },
        {
          "indexed": false,
          "internalType": "uint256",
          "name": "ethReceived",
          "type": "uint256"
        },
        {
          "indexed": false,
          "internalType": "uint256",
          "name": "tokensIntoLiquidity",
          "type": "uint256"
        }
      ],
      "name": "SwapAndLiquify",
      "type": "event"
    },
    {
      "anonymous": false,
      "inputs": [
        {
          "indexed": true,
          "internalType": "address",
          "name": "from",
          "type": "address"
        },
        {
          "indexed": true,
          "internalType": "address",
          "name": "to",
          "type": "address"
        },
        {
          "indexed": false,
          "internalType": "uint256",
          "name": "value",
          "type": "uint256"
        }
      ],
      "name": "Transfer",
      "type": "event"
    },
    {
      "anonymous": false,
      "inputs": [
        {
          "indexed": true,
          "internalType": "address",
          "name": "newAddress",
          "type": "address"
        },
        {
          "indexed": true,
          "internalType": "address",
          "name": "oldAddress",
          "type": "address"
        }
      ],
      "name": "UpdateUniswapV2Router",
      "type": "event"
    },
    {
      "anonymous": false,
      "inputs": [
        {
          "indexed": true,
          "internalType": "address",
          "name": "newWallet",
          "type": "address"
        },
        {
          "indexed": true,
          "internalType": "address",
          "name": "oldWallet",
          "type": "address"
        }
      ],
      "name": "revShareWalletUpdated",
      "type": "event"
    },
    {
      "anonymous": false,
      "inputs": [
        {
          "indexed": true,
          "internalType": "address",
          "name": "newWallet",
          "type": "address"
        },
        {
          "indexed": true,
          "internalType": "address",
          "name": "oldWallet",
          "type": "address"
        }
      ],
      "name": "teamWalletUpdated",
      "type": "event"
    },
    {
      "inputs": [
        {
          "internalType": "address",
          "name": "",
          "type": "address"
        }
      ],
      "name": "_isExcludedMaxTransactionAmount",
      "outputs": [
        {
          "internalType": "bool",
          "name": "",
          "type": "bool"
        }
      ],
      "stateMutability": "view",
      "type": "function"
    },
    {
      "inputs": [
        {
          "internalType": "address",
          "name": "owner",
          "type": "address"
        },
        {
          "internalType": "address",
          "name": "spender",
          "type": "address"
        }
      ],
      "name": "allowance",
      "outputs": [
        {
          "internalType": "uint256",
          "name": "",
          "type": "uint256"
        }
      ],
      "stateMutability": "view",
      "type": "function"
    },
    {
      "inputs": [
        {
          "internalType": "address",
          "name": "spender",
          "type": "address"
        },
        {
          "internalType": "uint256",
          "name": "amount",
          "type": "uint256"
        }
      ],
      "name": "approve",
      "outputs": [
        {
          "internalType": "bool",
          "name": "",
          "type": "bool"
        }
      ],
      "stateMutability": "nonpayable",
      "type": "function"
    },
    {
      "inputs": [
        {
          "internalType": "address",
          "name": "",
          "type": "address"
        }
      ],
      "name": "automatedMarketMakerPairs",
      "outputs": [
        {
          "internalType": "bool",
          "name": "",
          "type": "bool"
        }
      ],
      "stateMutability": "view",
      "type": "function"
    },
    {
      "inputs": [
        {
          "internalType": "address",
          "name": "account",
          "type": "address"
        }
      ],
      "name": "balanceOf",
      "outputs": [
        {
          "internalType": "uint256",
          "name": "",
          "type": "uint256"
        }
      ],
      "stateMutability": "view",
      "type": "function"
    },
    {
      "inputs": [
        {
          "internalType": "address",
          "name": "_addr",
          "type": "address"
        }
      ],
      "name": "blacklist",
      "outputs": [],
      "stateMutability": "nonpayable",
      "type": "function"
    },
    {
      "inputs": [
        {
          "internalType": "address",
          "name": "lpAddress",
          "type": "address"
        }
      ],
      "name": "blacklistLiquidityPool",
      "outputs": [],
      "stateMutability": "nonpayable",
      "type": "function"
    },
    {
      "inputs": [],
      "name": "blacklistRenounced",
      "outputs": [
        {
          "internalType": "bool",
          "name": "",
          "type": "bool"
        }
      ],
      "stateMutability": "view",
      "type": "function"
    },
    {
      "inputs": [
        {
          "internalType": "uint256",
          "name": "amount",
          "type": "uint256"
        }
      ],
      "name": "burn",
      "outputs": [],
      "stateMutability": "nonpayable",
      "type": "function"
    },
    {
      "inputs": [
        {
          "internalType": "address",
          "name": "account",
          "type": "address"
        },
        {
          "internalType": "uint256",
          "name": "amount",
          "type": "uint256"
        }
      ],
      "name": "burnFrom",
      "outputs": [],
      "stateMutability": "nonpayable",
      "type": "function"
    },
    {
      "inputs": [],
      "name": "buyLiquidityFee",
      "outputs": [
        {
          "internalType": "uint256",
          "name": "",
          "type": "uint256"
        }
      ],
      "stateMutability": "view",
      "type": "function"
    },
    {
      "inputs": [],
      "name": "buyRevShareFee",
      "outputs": [
        {
          "internalType": "uint256",
          "name": "",
          "type": "uint256"
        }
      ],
      "stateMutability": "view",
      "type": "function"
    },
    {
      "inputs": [],
      "name": "buyTeamFee",
      "outputs": [
        {
          "internalType": "uint256",
          "name": "",
          "type": "uint256"
        }
      ],
      "stateMutability": "view",
      "type": "function"
    },
    {
      "inputs": [],
      "name": "buyTotalFees",
      "outputs": [
        {
          "internalType": "uint256",
          "name": "",
          "type": "uint256"
        }
      ],
      "stateMutability": "view",
      "type": "function"
    },
    {
      "inputs": [],
      "name": "deadAddress",
      "outputs": [
        {
          "internalType": "address",
          "name": "",
          "type": "address"
        }
      ],
      "stateMutability": "view",
      "type": "function"
    },
    {
      "inputs": [],
      "name": "decimals",
      "outputs": [
        {
          "internalType": "uint8",
          "name": "",
          "type": "uint8"
        }
      ],
      "stateMutability": "view",
      "type": "function"
    },
    {
      "inputs": [
        {
          "internalType": "address",
          "name": "spender",
          "type": "address"
        },
        {
          "internalType": "uint256",
          "name": "subtractedValue",
          "type": "uint256"
        }
      ],
      "name": "decreaseAllowance",
      "outputs": [
        {
          "internalType": "bool",
          "name": "",
          "type": "bool"
        }
      ],
      "stateMutability": "nonpayable",
      "type": "function"
    },
    {
      "inputs": [],
      "name": "enableTrading",
      "outputs": [],
      "stateMutability": "nonpayable",
      "type": "function"
    },
    {
      "inputs": [
        {
          "internalType": "address",
          "name": "account",
          "type": "address"
        },
        {
          "internalType": "bool",
          "name": "excluded",
          "type": "bool"
        }
      ],
      "name": "excludeFromFees",
      "outputs": [],
      "stateMutability": "nonpayable",
      "type": "function"
    },
    {
      "inputs": [
        {
          "internalType": "address",
          "name": "updAds",
          "type": "address"
        },
        {
          "internalType": "bool",
          "name": "isEx",
          "type": "bool"
        }
      ],
      "name": "excludeFromMaxTransaction",
      "outputs": [],
      "stateMutability": "nonpayable",
      "type": "function"
    },
    {
      "inputs": [
        {
          "internalType": "address",
          "name": "spender",
          "type": "address"
        },
        {
          "internalType": "uint256",
          "name": "addedValue",
          "type": "uint256"
        }
      ],
      "name": "increaseAllowance",
      "outputs": [
        {
          "internalType": "bool",
          "name": "",
          "type": "bool"
        }
      ],
      "stateMutability": "nonpayable",
      "type": "function"
    },
    {
      "inputs": [
        {
          "internalType": "address",
          "name": "account",
          "type": "address"
        }
      ],
      "name": "isBlacklisted",
      "outputs": [
        {
          "internalType": "bool",
          "name": "",
          "type": "bool"
        }
      ],
      "stateMutability": "view",
      "type": "function"
    },
    {
      "inputs": [
        {
          "internalType": "address",
          "name": "account",
          "type": "address"
        }
      ],
      "name": "isExcludedFromFees",
      "outputs": [
        {
          "internalType": "bool",
          "name": "",
          "type": "bool"
        }
      ],
      "stateMutability": "view",
      "type": "function"
    },
    {
      "inputs": [],
      "name": "limitsInEffect",
      "outputs": [
        {
          "internalType": "bool",
          "name": "",
          "type": "bool"
        }
      ],
      "stateMutability": "view",
      "type": "function"
    },
    {
      "inputs": [],
      "name": "maxTransactionAmount",
      "outputs": [
        {
          "internalType": "uint256",
          "name": "",
          "type": "uint256"
        }
      ],
      "stateMutability": "view",
      "type": "function"
    },
    {
      "inputs": [],
      "name": "maxWallet",
      "outputs": [
        {
          "internalType": "uint256",
          "name": "",
          "type": "uint256"
        }
      ],
      "stateMutability": "view",
      "type": "function"
    },
    {
      "inputs": [],
      "name": "name",
      "outputs": [
        {
          "internalType": "string",
          "name": "",
          "type": "string"
        }
      ],
      "stateMutability": "view",
      "type": "function"
    },
    {
      "inputs": [],
      "name": "owner",
      "outputs": [
        {
          "internalType": "address",
          "name": "",
          "type": "address"
        }
      ],
      "stateMutability": "view",
      "type": "function"
    },
    {
      "inputs": [],
      "name": "preMigrationPhase",
      "outputs": [
        {
          "internalType": "bool",
          "name": "",
          "type": "bool"
        }
      ],
      "stateMutability": "view",
      "type": "function"
    },
    {
      "inputs": [
        {
          "internalType": "address",
          "name": "",
          "type": "address"
        }
      ],
      "name": "preMigrationTransferrable",
      "outputs": [
        {
          "internalType": "bool",
          "name": "",
          "type": "bool"
        }
      ],
      "stateMutability": "view",
      "type": "function"
    },
    {
      "inputs": [],
      "name": "removeLimits",
      "outputs": [
        {
          "internalType": "bool",
          "name": "",
          "type": "bool"
        }
      ],
      "stateMutability": "nonpayable",
      "type": "function"
    },
    {
      "inputs": [],
      "name": "renounceBlacklist",
      "outputs": [],
      "stateMutability": "nonpayable",
      "type": "function"
    },
    {
      "inputs": [],
      "name": "renounceOwnership",
      "outputs": [],
      "stateMutability": "nonpayable",
      "type": "function"
    },
    {
      "inputs": [],
      "name": "revShareWallet",
      "outputs": [
        {
          "internalType": "address",
          "name": "",
          "type": "address"
        }
      ],
      "stateMutability": "view",
      "type": "function"
    },
    {
      "inputs": [],
      "name": "risks",
      "outputs": [
        {
          "internalType": "string",
          "name": "",
          "type": "string"
        }
      ],
      "stateMutability": "pure",
      "type": "function"
    },
    {
      "inputs": [],
      "name": "sellLiquidityFee",
      "outputs": [
        {
          "internalType": "uint256",
          "name": "",
          "type": "uint256"
        }
      ],
      "stateMutability": "view",
      "type": "function"
    },
    {
      "inputs": [],
      "name": "sellRevShareFee",
      "outputs": [
        {
          "internalType": "uint256",
          "name": "",
          "type": "uint256"
        }
      ],
      "stateMutability": "view",
      "type": "function"
    },
    {
      "inputs": [],
      "name": "sellTeamFee",
      "outputs": [
        {
          "internalType": "uint256",
          "name": "",
          "type": "uint256"
        }
      ],
      "stateMutability": "view",
      "type": "function"
    },
    {
      "inputs": [],
      "name": "sellTotalFees",
      "outputs": [
        {
          "internalType": "uint256",
          "name": "",
          "type": "uint256"
        }
      ],
      "stateMutability": "view",
      "type": "function"
    },
    {
      "inputs": [
        {
          "internalType": "address",
          "name": "pair",
          "type": "address"
        },
        {
          "internalType": "bool",
          "name": "value",
          "type": "bool"
        }
      ],
      "name": "setAutomatedMarketMakerPair",
      "outputs": [],
      "stateMutability": "nonpayable",
      "type": "function"
    },
    {
      "inputs": [
        {
          "internalType": "address",
          "name": "_addr",
          "type": "address"
        },
        {
          "internalType": "bool",
          "name": "isAuthorized",
          "type": "bool"
        }
      ],
      "name": "setPreMigrationTransferable",
      "outputs": [],
      "stateMutability": "nonpayable",
      "type": "function"
    },
    {
      "inputs": [],
      "name": "swapEnabled",
      "outputs": [
        {
          "internalType": "bool",
          "name": "",
          "type": "bool"
        }
      ],
      "stateMutability": "view",
      "type": "function"
    },
    {
      "inputs": [],
      "name": "swapTokensAtAmount",
      "outputs": [
        {
          "internalType": "uint256",
          "name": "",
          "type": "uint256"
        }
      ],
      "stateMutability": "view",
      "type": "function"
    },
    {
      "inputs": [],
      "name": "symbol",
      "outputs": [
        {
          "internalType": "string",
          "name": "",
          "type": "string"
        }
      ],
      "stateMutability": "view",
      "type": "function"
    },
    {
      "inputs": [],
      "name": "teamWallet",
      "outputs": [
        {
          "internalType": "address",
          "name": "",
          "type": "address"
        }
      ],
      "stateMutability": "view",
      "type": "function"
    },
    {
      "inputs": [],
      "name": "tokensForLiquidity",
      "outputs": [
        {
          "internalType": "uint256",
          "name": "",
          "type": "uint256"
        }
      ],
      "stateMutability": "view",
      "type": "function"
    },
    {
      "inputs": [],
      "name": "tokensForRevShare",
      "outputs": [
        {
          "internalType": "uint256",
          "name": "",
          "type": "uint256"
        }
      ],
      "stateMutability": "view",
      "type": "function"
    },
    {
      "inputs": [],
      "name": "tokensForTeam",
      "outputs": [
        {
          "internalType": "uint256",
          "name": "",
          "type": "uint256"
        }
      ],
      "stateMutability": "view",
      "type": "function"
    },
    {
      "inputs": [],
      "name": "totalSupply",
      "outputs": [
        {
          "internalType": "uint256",
          "name": "",
          "type": "uint256"
        }
      ],
      "stateMutability": "view",
      "type": "function"
    },
    {
      "inputs": [],
      "name": "tradingActive",
      "outputs": [
        {
          "internalType": "bool",
          "name": "",
          "type": "bool"
        }
      ],
      "stateMutability": "view",
      "type": "function"
    },
    {
      "inputs": [
        {
          "internalType": "address",
          "name": "to",
          "type": "address"
        },
        {
          "internalType": "uint256",
          "name": "amount",
          "type": "uint256"
        }
      ],
      "name": "transfer",
      "outputs": [
        {
          "internalType": "bool",
          "name": "",
          "type": "bool"
        }
      ],
      "stateMutability": "nonpayable",
      "type": "function"
    },
    {
      "inputs": [
        {
          "internalType": "address",
          "name": "from",
          "type": "address"
        },
        {
          "internalType": "address",
          "name": "to",
          "type": "address"
        },
        {
          "internalType": "uint256",
          "name": "amount",
          "type": "uint256"
        }
      ],
      "name": "transferFrom",
      "outputs": [
        {
          "internalType": "bool",
          "name": "",
          "type": "bool"
        }
      ],
      "stateMutability": "nonpayable",
      "type": "function"
    },
    {
      "inputs": [
        {
          "internalType": "address",
          "name": "newOwner",
          "type": "address"
        }
      ],
      "name": "transferOwnership",
      "outputs": [],
      "stateMutability": "nonpayable",
      "type": "function"
    },
    {
      "inputs": [
        {
          "internalType": "address",
          "name": "_addr",
          "type": "address"
        }
      ],
      "name": "unblacklist",
      "outputs": [],
      "stateMutability": "nonpayable",
      "type": "function"
    },
    {
      "inputs": [],
      "name": "uniswapV2Pair",
      "outputs": [
        {
          "internalType": "address",
          "name": "",
          "type": "address"
        }
      ],
      "stateMutability": "view",
      "type": "function"
    },
    {
      "inputs": [],
      "name": "uniswapV2Router",
      "outputs": [
        {
          "internalType": "contract IUniswapV2Router02",
          "name": "",
          "type": "address"
        }
      ],
      "stateMutability": "view",
      "type": "function"
    },
    {
      "inputs": [
        {
          "internalType": "uint256",
          "name": "_revShareFee",
          "type": "uint256"
        },
        {
          "internalType": "uint256",
          "name": "_liquidityFee",
          "type": "uint256"
        },
        {
          "internalType": "uint256",
          "name": "_teamFee",
          "type": "uint256"
        }
      ],
      "name": "updateBuyFees",
      "outputs": [],
      "stateMutability": "nonpayable",
      "type": "function"
    },
    {
      "inputs": [
        {
          "internalType": "uint256",
          "name": "newNum",
          "type": "uint256"
        }
      ],
      "name": "updateMaxTxnAmount",
      "outputs": [],
      "stateMutability": "nonpayable",
      "type": "function"
    },
    {
      "inputs": [
        {
          "internalType": "uint256",
          "name": "newNum",
          "type": "uint256"
        }
      ],
      "name": "updateMaxWalletAmount",
      "outputs": [],
      "stateMutability": "nonpayable",
      "type": "function"
    },
    {
      "inputs": [
        {
          "internalType": "address",
          "name": "newRevShareWallet",
          "type": "address"
        }
      ],
      "name": "updateRevShareWallet",
      "outputs": [],
      "stateMutability": "nonpayable",
      "type": "function"
    },
    {
      "inputs": [
        {
          "internalType": "uint256",
          "name": "_revShareFee",
          "type": "uint256"
        },
        {
          "internalType": "uint256",
          "name": "_liquidityFee",
          "type": "uint256"
        },
        {
          "internalType": "uint256",
          "name": "_teamFee",
          "type": "uint256"
        }
      ],
      "name": "updateSellFees",
      "outputs": [],
      "stateMutability": "nonpayable",
      "type": "function"
    },
    {
      "inputs": [
        {
          "internalType": "bool",
          "name": "enabled",
          "type": "bool"
        }
      ],
      "name": "updateSwapEnabled",
      "outputs": [],
      "stateMutability": "nonpayable",
      "type": "function"
    },
    {
      "inputs": [
        {
          "internalType": "uint256",
          "name": "newAmount",
          "type": "uint256"
        }
      ],
      "name": "updateSwapTokensAtAmount",
      "outputs": [
        {
          "internalType": "bool",
          "name": "",
          "type": "bool"
        }
      ],
      "stateMutability": "nonpayable",
      "type": "function"
    },
    {
      "inputs": [
        {
          "internalType": "address",
          "name": "newWallet",
          "type": "address"
        }
      ],
      "name": "updateTeamWallet",
      "outputs": [],
      "stateMutability": "nonpayable",
      "type": "function"
    },
    {
      "inputs": [
        {
          "internalType": "address",
          "name": "toAddr",
          "type": "address"
        }
      ],
      "name": "withdrawStuckEth",
      "outputs": [],
      "stateMutability": "nonpayable",
      "type": "function"
    },
    {
      "inputs": [
        {
          "internalType": "address",
          "name": "_token",
          "type": "address"
        },
        {
          "internalType": "address",
          "name": "_to",
          "type": "address"
        }
      ],
      "name": "withdrawStuckToken",
      "outputs": [],
      "stateMutability": "nonpayable",
      "type": "function"
    },
    {
      "inputs": [],
      "name": "withdrawStuckUnibot",
      "outputs": [],
      "stateMutability": "nonpayable",
      "type": "function"
    },
    {
      "stateMutability": "payable",
      "type": "receive"
    }
  ],
  "bytecode": "0x60c0604052600b805463ffffffff19166001908117909155601b805460ff191690911790553480156200003157600080fd5b50604080518082018252600880825267119c995b8814195d60c21b6020808401829052845180860190955291845290830152906003620000728382620006d6565b506004620000818282620006d6565b5050506200009e62000098620003c060201b60201c565b620003c4565b73c532a74256d3db42d0bf7a0400fefdbad7694008620000c081600162000416565b6001600160a01b03811660808190526040805163c45a015560e01b8152905163c45a0155916004808201926020929091908290030181865afa1580156200010b573d6000803e3d6000fd5b505050506040513d601f19601f82011682018060405250810190620001319190620007a2565b6001600160a01b031663c9c6539630836001600160a01b031663ad5c46486040518163ffffffff1660e01b8152600401602060405180830381865afa1580156200017f573d6000803e3d6000fd5b505050506040513d601f19601f82011682018060405250810190620001a59190620007a2565b6040516001600160e01b031960e085901b1681526001600160a01b039283166004820152911660248201526044016020604051808303816000875af1158015620001f3573d6000803e3d6000fd5b505050506040513d601f19601f82011682018060405250810190620002199190620007a2565b6001600160a01b031660a08190526200023490600162000416565b60a051620002449060016200044b565b69010f0cf064dd592000006008819055600a5560026001818082816a084595161401484a0000006127106200027b826005620007ea565b6200028791906200080a565b600955600e879055600f869055601085905584620002a687896200082d565b620002b291906200082d565b600d5560128490556013839055601482905581620002d184866200082d565b620002dd91906200082d565b601155600554600780546001600160a01b0319166001600160a01b0390921691821790556200030e9060016200049f565b6200031b3060016200049f565b6200032a61dead60016200049f565b62000349620003416005546001600160a01b031690565b600162000416565b6200035630600162000416565b6200036561dead600162000416565b6001601c60006200037e6005546001600160a01b031690565b6001600160a01b031681526020810191909152604001600020805460ff1916911515919091179055620003b2338262000508565b505050505050505062000843565b3390565b600580546001600160a01b038381166001600160a01b0319831681179093556040519116919082907f8be0079c531659141344cd1fd0a4f28419497f9722a3daafe3b4186f6b6457e090600090a35050565b62000420620005cf565b6001600160a01b03919091166000908152601960205260409020805460ff1916911515919091179055565b6001600160a01b0382166000818152601a6020526040808220805460ff191685151590811790915590519092917fffa9187bf1f18bf477bd0ea1bcbb64e93b6a98132473929edfce215cd9b16fab91a35050565b620004a9620005cf565b6001600160a01b038216600081815260186020908152604091829020805460ff191685151590811790915591519182527f9d8f7706ea1113d1a167b526eca956215946dd36cc7df39eb16180222d8b5df7910160405180910390a25050565b6001600160a01b038216620005645760405162461bcd60e51b815260206004820152601f60248201527f45524332303a206d696e7420746f20746865207a65726f20616464726573730060448201526064015b60405180910390fd5b80600260008282546200057891906200082d565b90915550506001600160a01b038216600081815260208181526040808320805486019055518481527fddf252ad1be2c89b69c2b068fc378daa952ba7f163c4a11628f55a4df523b3ef910160405180910390a35050565b6005546001600160a01b031633146200062b5760405162461bcd60e51b815260206004820181905260248201527f4f776e61626c653a2063616c6c6572206973206e6f7420746865206f776e657260448201526064016200055b565b565b505050565b634e487b7160e01b600052604160045260246000fd5b600181811c908216806200065d57607f821691505b6020821081036200067e57634e487b7160e01b600052602260045260246000fd5b50919050565b601f8211156200062d57600081815260208120601f850160051c81016020861015620006ad5750805b601f850160051c820191505b81811015620006ce57828155600101620006b9565b505050505050565b81516001600160401b03811115620006f257620006f262000632565b6200070a8162000703845462000648565b8462000684565b602080601f831160018114620007425760008415620007295750858301515b600019600386901b1c1916600185901b178555620006ce565b600085815260208120601f198616915b82811015620007735788860151825594840194600190910190840162000752565b5085821015620007925787850151600019600388901b60f8161c191681555b5050505050600190811b01905550565b600060208284031215620007b557600080fd5b81516001600160a01b0381168114620007cd57600080fd5b9392505050565b634e487b7160e01b600052601160045260246000fd5b8082028115828204841417620008045762000804620007d4565b92915050565b6000826200082857634e487b7160e01b600052601260045260246000fd5b500490565b80820180821115620008045762000804620007d4565b60805160a05161302b6200089a60003960008181610647015281816110f9015261177b0152600081816104cf015281816128e50152818161299e015281816129da01528181612a540152612a7b015261302b6000f3fe6080604052600436106103e85760003560e01c80637ca8448a11610208578063c17b5b8c11610118578063e2f45605116100ab578063f8b45b051161007a578063f8b45b0514610b9d578063f9d7ff8914610bb3578063f9f92be414610b1b578063fde83a3414610bc8578063fe575a8714610bde57600080fd5b8063e2f4560514610b3b578063f11a24d314610b51578063f2fde38b14610b67578063f637434214610b8757600080fd5b8063d729715f116100e7578063d729715f14610acf578063d85ba06314610ae5578063dd62ed3e14610afb578063e19b282314610b1b57600080fd5b8063c17b5b8c14610a59578063c18bc19514610a79578063c8c8ebe414610a99578063d257b34f14610aaf57600080fd5b80639c2e4ac61161019b578063adee28ff1161016a578063adee28ff146109aa578063b62496f5146109ca578063bbc0c742146109fa578063bc205ad314610a19578063c024666814610a3957600080fd5b80639c2e4ac614610934578063a457c2d71461094a578063a9059cbb1461096a578063aa0e43881461098a57600080fd5b80638da5cb5b116101d75780638da5cb5b146108c1578063924de9b7146108df57806395d89b41146108ff5780639a7a23d61461091457600080fd5b80637ca8448a1461084c5780637cb332bb1461086c5780638095d5641461088c5780638a8c523c146108ac57600080fd5b806342966c68116103035780636a486a8e11610296578063751039fc11610265578063751039fc146107b75780637571336a146107cc57806375e3661e146107ec578063782c4e991461080c57806379cc67901461082c57600080fd5b80636a486a8e146107365780636ddd17131461074c57806370a082311461076c578063715018a6146107a257600080fd5b80634fbee193116102d25780634fbee193146106b357806359927044146106ec5780635ea92ddd1461070c5780635f1893611461072157600080fd5b806342966c681461061557806349bd5a5e146106355780634a62bb65146106695780634e29e5231461068357600080fd5b80631a8145bb1161037b57806327c8f8351161034a57806327c8f835146105a2578063313ce567146105b857806339509351146105d45780633dc599ff146105f457600080fd5b80631a8145bb14610534578063203e727e1461054a57806323b872dd1461056c57806324b9f3c11461058c57600080fd5b8063156c2f35116103b7578063156c2f35146104995780631694505e146104bd57806318160ddd1461050957806319eab0421461051e57600080fd5b806306fdde03146103f4578063095ea7b31461041f5780630e922ca71461044f57806310d5de531461046957600080fd5b366103ef57005b600080fd5b34801561040057600080fd5b50610409610c17565b6040516104169190612b54565b60405180910390f35b34801561042b57600080fd5b5061043f61043a366004612bb7565b610ca9565b6040519015158152602001610416565b34801561045b57600080fd5b50601b5461043f9060ff1681565b34801561047557600080fd5b5061043f610484366004612be3565b60196020526000908152604090205460ff1681565b3480156104a557600080fd5b506104af600e5481565b604051908152602001610416565b3480156104c957600080fd5b506104f17f000000000000000000000000000000000000000000000000000000000000000081565b6040516001600160a01b039091168152602001610416565b34801561051557600080fd5b506002546104af565b34801561052a57600080fd5b506104af60125481565b34801561054057600080fd5b506104af60165481565b34801561055657600080fd5b5061056a610565366004612c00565b610cc3565b005b34801561057857600080fd5b5061043f610587366004612c19565b610d83565b34801561059857600080fd5b506104af60155481565b3480156105ae57600080fd5b506104f161dead81565b3480156105c457600080fd5b5060405160128152602001610416565b3480156105e057600080fd5b5061043f6105ef366004612bb7565b610da7565b34801561060057600080fd5b50600b5461043f906301000000900460ff1681565b34801561062157600080fd5b5061056a610630366004612c00565b610dc9565b34801561064157600080fd5b506104f17f000000000000000000000000000000000000000000000000000000000000000081565b34801561067557600080fd5b50600b5461043f9060ff1681565b34801561068f57600080fd5b5061043f61069e366004612be3565b601c6020526000908152604090205460ff1681565b3480156106bf57600080fd5b5061043f6106ce366004612be3565b6001600160a01b031660009081526018602052604090205460ff1690565b3480156106f857600080fd5b506007546104f1906001600160a01b031681565b34801561071857600080fd5b5061056a610dd6565b34801561072d57600080fd5b5061056a610edc565b34801561074257600080fd5b506104af60115481565b34801561075857600080fd5b50600b5461043f9062010000900460ff1681565b34801561077857600080fd5b506104af610787366004612be3565b6001600160a01b031660009081526020819052604090205490565b3480156107ae57600080fd5b5061056a610ef9565b3480156107c357600080fd5b5061043f610f0d565b3480156107d857600080fd5b5061056a6107e7366004612c68565b610f27565b3480156107f857600080fd5b5061056a610807366004612be3565b610f5a565b34801561081857600080fd5b506006546104f1906001600160a01b031681565b34801561083857600080fd5b5061056a610847366004612bb7565b610f83565b34801561085857600080fd5b5061056a610867366004612be3565b610f98565b34801561087857600080fd5b5061056a610887366004612be3565b610fb3565b34801561089857600080fd5b5061056a6108a7366004612ca1565b611018565b3480156108b857600080fd5b5061056a611097565b3480156108cd57600080fd5b506005546001600160a01b03166104f1565b3480156108eb57600080fd5b5061056a6108fa366004612ccd565b6110bc565b34801561090b57600080fd5b506104096110e0565b34801561092057600080fd5b5061056a61092f366004612c68565b6110ef565b34801561094057600080fd5b506104af60105481565b34801561095657600080fd5b5061043f610965366004612bb7565b6111a8565b34801561097657600080fd5b5061043f610985366004612bb7565b611223565b34801561099657600080fd5b5061056a6109a5366004612c68565b611231565b3480156109b657600080fd5b5061056a6109c5366004612be3565b611271565b3480156109d657600080fd5b5061043f6109e5366004612be3565b601a6020526000908152604090205460ff1681565b348015610a0657600080fd5b50600b5461043f90610100900460ff1681565b348015610a2557600080fd5b5061056a610a34366004612cea565b6112d6565b348015610a4557600080fd5b5061056a610a54366004612c68565b61141c565b348015610a6557600080fd5b5061056a610a74366004612ca1565b611483565b348015610a8557600080fd5b5061056a610a94366004612c00565b611504565b348015610aa557600080fd5b506104af60085481565b348015610abb57600080fd5b5061043f610aca366004612c00565b6115b3565b348015610adb57600080fd5b506104af60145481565b348015610af157600080fd5b506104af600d5481565b348015610b0757600080fd5b506104af610b16366004612cea565b6116e2565b348015610b2757600080fd5b5061056a610b36366004612be3565b61170d565b348015610b4757600080fd5b506104af60095481565b348015610b5d57600080fd5b506104af600f5481565b348015610b7357600080fd5b5061056a610b82366004612be3565b61185f565b348015610b9357600080fd5b506104af60135481565b348015610ba957600080fd5b506104af600a5481565b348015610bbf57600080fd5b506104096118d5565b348015610bd457600080fd5b506104af60175481565b348015610bea57600080fd5b5061043f610bf9366004612be3565b6001600160a01b03166000908152600c602052604090205460ff1690565b606060038054610c2690612d18565b80601f0160208091040260200160405190810160405280929190818152602001828054610c5290612d18565b8015610c9f5780601f10610c7457610100808354040283529160200191610c9f565b820191906000526020600020905b815481529060010190602001808311610c8257829003601f168201915b5050505050905090565b600033610cb78185856118f5565b60019150505b92915050565b610ccb611a19565b670de0b6b3a76400006103e8610ce060025490565b610ceb906005612d68565b610cf59190612d7f565b610cff9190612d7f565b811015610d6b5760405162461bcd60e51b815260206004820152602f60248201527f43616e6e6f7420736574206d61785472616e73616374696f6e416d6f756e742060448201526e6c6f776572207468616e20302e352560881b60648201526084015b60405180910390fd5b610d7d81670de0b6b3a7640000612d68565b60085550565b600033610d91858285611a73565b610d9c858585611ae7565b506001949350505050565b600033610cb7818585610dba83836116e2565b610dc49190612da1565b6118f5565b610dd33382612335565b50565b610dde611a19565b6040516370a0823160e01b815230600482018190526000916370a0823190602401602060405180830381865afa158015610e1c573d6000803e3d6000fd5b505050506040513d601f19601f82011682018060405250810190610e409190612db4565b60405163a9059cbb60e01b815233600482015260248101829052909150309063a9059cbb906044016020604051808303816000875af1158015610e87573d6000803e3d6000fd5b505050506040513d601f19601f82011682018060405250810190610eab9190612dcd565b5060405133904780156108fc02916000818181858888f19350505050158015610ed8573d6000803e3d6000fd5b5050565b610ee4611a19565b600b805463ff00000019166301000000179055565b610f01611a19565b610f0b6000612467565b565b6000610f17611a19565b50600b805460ff19169055600190565b610f2f611a19565b6001600160a01b03919091166000908152601960205260409020805460ff1916911515919091179055565b610f62611a19565b6001600160a01b03166000908152600c60205260409020805460ff19169055565b610f8e823383611a73565b610ed88282612335565b610fa0611a19565b610dd36001600160a01b038216476124b9565b610fbb611a19565b6007546040516001600160a01b03918216918316907f8aa0f85050aca99be43beb823e0457e77966b3baf697a289b03681978f96166890600090a3600780546001600160a01b0319166001600160a01b0392909216919091179055565b611020611a19565b600e839055600f82905560108190558061103a8385612da1565b6110449190612da1565b600d819055600510156110925760405162461bcd60e51b8152602060048201526016602482015275213abc903332b2b99036bab9ba103132901e1e901a9760511b6044820152606401610d62565b505050565b61109f611a19565b600b805462ffff00191662010100179055601b805460ff19169055565b6110c4611a19565b600b8054911515620100000262ff000019909216919091179055565b606060048054610c2690612d18565b6110f7611a19565b7f00000000000000000000000000000000000000000000000000000000000000006001600160a01b0316826001600160a01b03160361119e5760405162461bcd60e51b815260206004820152603960248201527f54686520706169722063616e6e6f742062652072656d6f7665642066726f6d2060448201527f6175746f6d617465644d61726b65744d616b65725061697273000000000000006064820152608401610d62565b610ed8828261250a565b600033816111b682866116e2565b9050838110156112165760405162461bcd60e51b815260206004820152602560248201527f45524332303a2064656372656173656420616c6c6f77616e63652062656c6f77604482015264207a65726f60d81b6064820152608401610d62565b610d9c82868684036118f5565b600033610cb7818585611ae7565b611239611a19565b6001600160a01b0382166000908152601c60205260409020805460ff1916821515179055611267828261141c565b610ed88282610f27565b611279611a19565b6006546040516001600160a01b03918216918316907fc9f2d63eee8632b33d7a7db5252eb29036e81ee4fbe29260febe0c49ffb8a7bb90600090a3600680546001600160a01b0319166001600160a01b0392909216919091179055565b6112de611a19565b6001600160a01b0382166113345760405162461bcd60e51b815260206004820152601a60248201527f5f746f6b656e20616464726573732063616e6e6f7420626520300000000000006044820152606401610d62565b6040516370a0823160e01b81523060048201526000906001600160a01b038416906370a0823190602401602060405180830381865afa15801561137b573d6000803e3d6000fd5b505050506040513d601f19601f8201168201806040525081019061139f9190612db4565b60405163a9059cbb60e01b81526001600160a01b038481166004830152602482018390529192509084169063a9059cbb906044016020604051808303816000875af11580156113f2573d6000803e3d6000fd5b505050506040513d601f19601f820116820180604052508101906114169190612dcd565b50505050565b611424611a19565b6001600160a01b038216600081815260186020908152604091829020805460ff191685151590811790915591519182527f9d8f7706ea1113d1a167b526eca956215946dd36cc7df39eb16180222d8b5df7910160405180910390a25050565b61148b611a19565b601283905560138290556014819055806114a58385612da1565b6114af9190612da1565b6011819055600510156110925760405162461bcd60e51b815260206004820152601760248201527f53656c6c2066656573206d757374206265203c3d20352e0000000000000000006044820152606401610d62565b61150c611a19565b670de0b6b3a76400006103e861152160025490565b61152c90600a612d68565b6115369190612d7f565b6115409190612d7f565b81101561159b5760405162461bcd60e51b8152602060048201526024808201527f43616e6e6f7420736574206d617857616c6c6574206c6f776572207468616e20604482015263312e302560e01b6064820152608401610d62565b6115ad81670de0b6b3a7640000612d68565b600a5550565b60006115bd611a19565b620186a06115ca60025490565b6115d5906001612d68565b6115df9190612d7f565b82101561164c5760405162461bcd60e51b815260206004820152603560248201527f5377617020616d6f756e742063616e6e6f74206265206c6f776572207468616e60448201527410181718181892903a37ba30b61039bab838363c9760591b6064820152608401610d62565b6103e861165860025490565b611663906005612d68565b61166d9190612d7f565b8211156116d95760405162461bcd60e51b815260206004820152603460248201527f5377617020616d6f756e742063616e6e6f742062652068696768657220746861604482015273371018171a92903a37ba30b61039bab838363c9760611b6064820152608401610d62565b50600955600190565b6001600160a01b03918216600090815260016020908152604080832093909416825291909152205490565b611715611a19565b600b546301000000900460ff16156117795760405162461bcd60e51b815260206004820152602160248201527f5465616d20686173207265766f6b656420626c61636b6c6973742072696768746044820152607360f81b6064820152608401610d62565b7f00000000000000000000000000000000000000000000000000000000000000006001600160a01b0316816001600160a01b0316141580156117d857506001600160a01b038116737a250d5630b4cf539739df2c5dacb4c659f2488d14155b61183b5760405162461bcd60e51b815260206004820152602e60248201527f43616e6e6f7420626c61636b6c69737420746f6b656e277320763220726f757460448201526d32b91037b9103b19103837b7b61760911b6064820152608401610d62565b6001600160a01b03166000908152600c60205260409020805460ff19166001179055565b611867611a19565b6001600160a01b0381166118cc5760405162461bcd60e51b815260206004820152602660248201527f4f776e61626c653a206e6577206f776e657220697320746865207a65726f206160448201526564647265737360d01b6064820152608401610d62565b610dd381612467565b60606040518060c00160405280609e8152602001612f58609e9139905090565b6001600160a01b0383166119575760405162461bcd60e51b8152602060048201526024808201527f45524332303a20617070726f76652066726f6d20746865207a65726f206164646044820152637265737360e01b6064820152608401610d62565b6001600160a01b0382166119b85760405162461bcd60e51b815260206004820152602260248201527f45524332303a20617070726f766520746f20746865207a65726f206164647265604482015261737360f01b6064820152608401610d62565b6001600160a01b0383811660008181526001602090815260408083209487168084529482529182902085905590518481527f8c5be1e5ebec7d5bd14f71427d1e84f3dd0314c0f7b2291e5b200ac8c7c3b925910160405180910390a3505050565b6005546001600160a01b03163314610f0b5760405162461bcd60e51b815260206004820181905260248201527f4f776e61626c653a2063616c6c6572206973206e6f7420746865206f776e65726044820152606401610d62565b6000611a7f84846116e2565b905060001981146114165781811015611ada5760405162461bcd60e51b815260206004820152601d60248201527f45524332303a20696e73756666696369656e7420616c6c6f77616e63650000006044820152606401610d62565b61141684848484036118f5565b6001600160a01b038316611b0d5760405162461bcd60e51b8152600401610d6290612dea565b6001600160a01b038216611b335760405162461bcd60e51b8152600401610d6290612e2f565b6001600160a01b0383166000908152600c602052604090205460ff1615611b915760405162461bcd60e51b815260206004820152601260248201527114d95b99195c88189b1858dadb1a5cdd195960721b6044820152606401610d62565b6001600160a01b0382166000908152600c602052604090205460ff1615611bf15760405162461bcd60e51b8152602060048201526014602482015273149958d95a5d995c88189b1858dadb1a5cdd195960621b6044820152606401610d62565b601b5460ff1615611c76576001600160a01b0383166000908152601c602052604090205460ff16611c765760405162461bcd60e51b815260206004820152602960248201527f4e6f7420617574686f72697a656420746f207472616e73666572207072652d6d60448201526834b3b930ba34b7b71760b91b6064820152608401610d62565b80600003611c8a576110928383600061255e565b600b5460ff1615612000576005546001600160a01b03848116911614801590611cc157506005546001600160a01b03838116911614155b8015611cd557506001600160a01b03821615155b8015611cec57506001600160a01b03821661dead14155b8015611d025750600554600160a01b900460ff16155b1561200057600b54610100900460ff16611d9a576001600160a01b03831660009081526018602052604090205460ff1680611d5557506001600160a01b03821660009081526018602052604090205460ff165b611d9a5760405162461bcd60e51b81526020600482015260166024820152752a3930b234b7339034b9903737ba1030b1ba34bb329760511b6044820152606401610d62565b6001600160a01b0383166000908152601a602052604090205460ff168015611ddb57506001600160a01b03821660009081526019602052604090205460ff16155b15611ebf57600854811115611e505760405162461bcd60e51b815260206004820152603560248201527f427579207472616e7366657220616d6f756e742065786365656473207468652060448201527436b0bc2a3930b739b0b1ba34b7b720b6b7bab73a1760591b6064820152608401610d62565b600a546001600160a01b038316600090815260208190526040902054611e769083612da1565b1115611eba5760405162461bcd60e51b815260206004820152601360248201527213585e081dd85b1b195d08195e18d959591959606a1b6044820152606401610d62565b612000565b6001600160a01b0382166000908152601a602052604090205460ff168015611f0057506001600160a01b03831660009081526019602052604090205460ff16155b15611f7657600854811115611eba5760405162461bcd60e51b815260206004820152603660248201527f53656c6c207472616e7366657220616d6f756e742065786365656473207468656044820152751036b0bc2a3930b739b0b1ba34b7b720b6b7bab73a1760511b6064820152608401610d62565b6001600160a01b03821660009081526019602052604090205460ff1661200057600a546001600160a01b038316600090815260208190526040902054611fbc9083612da1565b11156120005760405162461bcd60e51b815260206004820152601360248201527213585e081dd85b1b195d08195e18d959591959606a1b6044820152606401610d62565b306000908152602081905260409020546009548110801590819061202c5750600b5462010000900460ff165b80156120425750600554600160a01b900460ff16155b801561206757506001600160a01b0385166000908152601a602052604090205460ff16155b801561208c57506001600160a01b03851660009081526018602052604090205460ff16155b80156120b157506001600160a01b03841660009081526018602052604090205460ff16155b156120df576005805460ff60a01b1916600160a01b1790556120d1612688565b6005805460ff60a01b191690555b6005546001600160a01b03861660009081526018602052604090205460ff600160a01b90920482161591168061212d57506001600160a01b03851660009081526018602052604090205460ff165b15612136575060005b60008115612321576001600160a01b0386166000908152601a602052604090205460ff16801561216857506000601154115b156122265761218d60646121876011548861286390919063ffffffff16565b90612876565b9050601154601354826121a09190612d68565b6121aa9190612d7f565b601660008282546121bb9190612da1565b90915550506011546014546121d09083612d68565b6121da9190612d7f565b601760008282546121eb9190612da1565b90915550506011546012546122009083612d68565b61220a9190612d7f565b6015600082825461221b9190612da1565b909155506123039050565b6001600160a01b0387166000908152601a602052604090205460ff16801561225057506000600d54115b156123035761226f6064612187600d548861286390919063ffffffff16565b9050600d54600f54826122829190612d68565b61228c9190612d7f565b6016600082825461229d9190612da1565b9091555050600d546010546122b29083612d68565b6122bc9190612d7f565b601760008282546122cd9190612da1565b9091555050600d54600e546122e29083612d68565b6122ec9190612d7f565b601560008282546122fd9190612da1565b90915550505b80156123145761231487308361255e565b61231e8186612e72565b94505b61232c87878761255e565b50505050505050565b6001600160a01b0382166123955760405162461bcd60e51b815260206004820152602160248201527f45524332303a206275726e2066726f6d20746865207a65726f206164647265736044820152607360f81b6064820152608401610d62565b6001600160a01b038216600090815260208190526040902054818110156124095760405162461bcd60e51b815260206004820152602260248201527f45524332303a206275726e20616d6f756e7420657863656564732062616c616e604482015261636560f01b6064820152608401610d62565b6001600160a01b0383166000818152602081815260408083208686039055600280548790039055518581529192917fddf252ad1be2c89b69c2b068fc378daa952ba7f163c4a11628f55a4df523b3ef910160405180910390a3505050565b600580546001600160a01b038381166001600160a01b0319831681179093556040519116919082907f8be0079c531659141344cd1fd0a4f28419497f9722a3daafe3b4186f6b6457e090600090a35050565b600080600080600085875af19050806110925760405162461bcd60e51b815260206004820152601360248201527211551217d514905394d1915497d19052531151606a1b6044820152606401610d62565b6001600160a01b0382166000818152601a6020526040808220805460ff191685151590811790915590519092917fffa9187bf1f18bf477bd0ea1bcbb64e93b6a98132473929edfce215cd9b16fab91a35050565b6001600160a01b0383166125845760405162461bcd60e51b8152600401610d6290612dea565b6001600160a01b0382166125aa5760405162461bcd60e51b8152600401610d6290612e2f565b6001600160a01b038316600090815260208190526040902054818110156126225760405162461bcd60e51b815260206004820152602660248201527f45524332303a207472616e7366657220616d6f756e7420657863656564732062604482015265616c616e636560d01b6064820152608401610d62565b6001600160a01b03848116600081815260208181526040808320878703905593871680835291849020805487019055925185815290927fddf252ad1be2c89b69c2b068fc378daa952ba7f163c4a11628f55a4df523b3ef910160405180910390a3611416565b30600090815260208190526040812054905060006017546015546016546126af9190612da1565b6126b99190612da1565b90508115806126c6575080155b156126cf575050565b6009546126dd906014612d68565b8211156126f5576009546126f2906014612d68565b91505b6000600282601654856127089190612d68565b6127129190612d7f565b61271c9190612d7f565b9050600061272a8483612882565b9050476127368261288e565b60006127424783612882565b9050600061277060026016546127589190612d7f565b6127629088612e72565b601554612187908590612863565b9050600061279e60026016546127869190612d7f565b6127909089612e72565b601754612187908690612863565b90506000816127ad8486612e72565b6127b79190612e72565b6000601681905560158190556017556007549091506127df906001600160a01b0316836124b9565b6000871180156127ef5750600081115b15612842576127fe8782612a4e565b601654604080518881526020810184905280820192909252517f17bbfb9a6069321b6ded73bd96327c9e6b7212a5cd51ff219cd61370acafb5619181900360600190a15b600654612858906001600160a01b0316476124b9565b505050505050505050565b600061286f8284612d68565b9392505050565b600061286f8284612d7f565b600061286f8284612e72565b60408051600280825260608201835260009260208301908036833701905050905030816000815181106128c3576128c3612e85565b60200260200101906001600160a01b031690816001600160a01b0316815250507f00000000000000000000000000000000000000000000000000000000000000006001600160a01b031663ad5c46486040518163ffffffff1660e01b8152600401602060405180830381865afa158015612941573d6000803e3d6000fd5b505050506040513d601f19601f820116820180604052508101906129659190612e9b565b8160018151811061297857612978612e85565b60200260200101906001600160a01b031690816001600160a01b0316815250506129c3307f0000000000000000000000000000000000000000000000000000000000000000846118f5565b60405163791ac94760e01b81526001600160a01b037f0000000000000000000000000000000000000000000000000000000000000000169063791ac94790612a18908590600090869030904290600401612eb8565b600060405180830381600087803b158015612a3257600080fd5b505af1158015612a46573d6000803e3d6000fd5b505050505050565b612a79307f0000000000000000000000000000000000000000000000000000000000000000846118f5565b7f00000000000000000000000000000000000000000000000000000000000000006001600160a01b031663f305d719823085600080612ac06005546001600160a01b031690565b60405160e088901b6001600160e01b03191681526001600160a01b03958616600482015260248101949094526044840192909252606483015290911660848201524260a482015260c40160606040518083038185885af1158015612b28573d6000803e3d6000fd5b50505050506040513d601f19601f82011682018060405250810190612b4d9190612f29565b5050505050565b600060208083528351808285015260005b81811015612b8157858101830151858201604001528201612b65565b506000604082860101526040601f19601f8301168501019250505092915050565b6001600160a01b0381168114610dd357600080fd5b60008060408385031215612bca57600080fd5b8235612bd581612ba2565b946020939093013593505050565b600060208284031215612bf557600080fd5b813561286f81612ba2565b600060208284031215612c1257600080fd5b5035919050565b600080600060608486031215612c2e57600080fd5b8335612c3981612ba2565b92506020840135612c4981612ba2565b929592945050506040919091013590565b8015158114610dd357600080fd5b60008060408385031215612c7b57600080fd5b8235612c8681612ba2565b91506020830135612c9681612c5a565b809150509250929050565b600080600060608486031215612cb657600080fd5b505081359360208301359350604090920135919050565b600060208284031215612cdf57600080fd5b813561286f81612c5a565b60008060408385031215612cfd57600080fd5b8235612d0881612ba2565b91506020830135612c9681612ba2565b600181811c90821680612d2c57607f821691505b602082108103612d4c57634e487b7160e01b600052602260045260246000fd5b50919050565b634e487b7160e01b600052601160045260246000fd5b8082028115828204841417610cbd57610cbd612d52565b600082612d9c57634e487b7160e01b600052601260045260246000fd5b500490565b80820180821115610cbd57610cbd612d52565b600060208284031215612dc657600080fd5b5051919050565b600060208284031215612ddf57600080fd5b815161286f81612c5a565b60208082526025908201527f45524332303a207472616e736665722066726f6d20746865207a65726f206164604082015264647265737360d81b606082015260800190565b60208082526023908201527f45524332303a207472616e7366657220746f20746865207a65726f206164647260408201526265737360e81b606082015260800190565b81810381811115610cbd57610cbd612d52565b634e487b7160e01b600052603260045260246000fd5b600060208284031215612ead57600080fd5b815161286f81612ba2565b600060a082018783526020878185015260a0604085015281875180845260c086019150828901935060005b81811015612f085784516001600160a01b031683529383019391830191600101612ee3565b50506001600160a01b03969096166060850152505050608001529392505050565b600080600060608486031215612f3e57600080fd5b835192506020840151915060408401519050925092509256fe54686520646576656c6f7065727320626568696e64206672656e207065742061726520726574617264656420616e64207465737420696e2070726f642c20646f206e6f74207370656e64206d6f6e6579206f6e207468697320756e6c65737320796f752061726520676f696e6720746f20706c6179207468652067616d652c2065766572797468696e6720696e2063727970746f206973207269736b792ea26469706673582212209ff644bfcc813996bc2245e786aa0e161ac8fb607fcef7e00e075884a31160f664736f6c63430008130033",
  "linkReferences": {},
  "deployedLinkReferences": {}
}